:020000040000FA
:060000000A128A110C280F
:10000800FE00030EF1000A08F2000A128A115B29A9
:100018000A128A110F280A128A118F220A128A11CB
:10002800C3000A128A118D220A128A11F8000A12D4
:100038008A118E220A128A11F900B401B501B6019B
:10004800B701B801B901BA01BB01BC01BD01BE01CC
:10005800BF01C001C101C201FA0183010A128A115C
:1000680035280A128A11AE210A128A118312031343
:1000780036033704031D412842285328B601B70127
:100088004308B1003107B2003208C3004308031D1A
:100098004E284F285128C301C30A390899000A304D
:1000A8004106031D582859285B28C001C00A0B3097
:1000B8004106031D602861286728BF01BF0A023076
:1000C800B1003108C0000C304106031D6C286D28B2
:1000D8007328BE01BE0A0430B1003108C000FA30EE
:1000E8004106031D782879287A28C001FB3041068B
:1000F800031D7F2880288128BF01FC304106031D8D
:10010800862887288828BE01410A031D8C288D2847
:100118009028C001BF01BE010A128A1184220A1266
:100128008A11EC30F3000030F4000A128A117122AF
:100138000A128A11D030F3000030F4000A128A1132
:1001480071220A128A110A128A117B220A128A1152
:10015800023083120313B3000430B200B930B10087
:10016800B10BB428B20BB428B30BB428BB280A12BD
:100178008A1184220A128A11ED30F3000030F4004B
:100188000A128A1171220A128A110030F300F4004F
:100198000A128A1135220A128A117308831203136C
:1001A800B1003108B9000A128A117B220A128A1199
:1001B800023083120313B3000430B200B930B10027
:1001C800B10BE428B20BE428B30BE428EB28831224
:1001D8000313400886003A280A128A110C280030B6
:1001E80083120313AB000030AA000030A9000030CE
:1001F800A80023082204210420040319042905293E
:100208005229AC01AC0A15290130F3000310A00DE6
:10021800A10DA20DA30DF30B0A290130F3007308F9
:10022800AC07A31F1829192908290130F300031066
:10023800A80DA90DAA0DAB0DF30B1B292308270246
:10024800031D302922082602031D30292108250212
:10025800031D302920082402031C3329342943298B
:100268002008A4022108031C210FA5022208031C50
:10027800220FA6022308031C230FA702281401300B
:100288000310A30CA20CA10CA00CFF3E031D4429D3
:100298000130AC02031D5129522919292B08A3004A
:1002A8002A08A2002908A1002808A00008000B1DA0
:1002B8005E295F2977290B11063083120313810009
:1002C8000130B4070318B50A0030B50719303406F1
:1002D8003504031D702971297729B401B50101304E
:1002E800B6000030B700831203138C1E7C297D29C9
:1002F800A2298C121A08F0007008C1000A304106C1
:10030800031D872988298A29C001C00A0B304106A4
:10031800031D8F2990299629BF01BF0A0230F000DA
:100328007008C0000C304106031D9B299C29A22996
:10033800BE01BE0A0430F0007008C0008C1DA5295B
:10034800A629A7298C1172088A00710E8300FE0E57
:100358007E0E0900FF30831603138500F8308600EF
:10036800FF308700FF3088000F308900831603179D
:100378008801890183160313871100308312031340
:10038800B0000030AF000030AE000930AD000A12F6
:100398008A11FB210A128A116530831603138F0014
:1003A8000630831203138100033083160313810080
:1003B8008B160B111815831603178711193083161E
:1003C80003139900981618128312031398178316AB
:1003D8000313181383120313181618138316031321
:1003E8008C160C12831203138C128B1708002830FA
:1003F80083120313940083160313910183120313CA
:100408002D08F4002E08F5002F08F6003008F70034
:1004180002300310F40DF50DF60DF70DFF3E031D28
:100428000D2A7708A3007608A2007508A1007408B1
:10043800A0000030A7003D30A6000930A50000301C
:10044800A4000A128A11F3200A128A1183120313D4
:100458002008FF3E8316031393009401871507169F
:1004680008000A128A1164220A128A1183160313D9
:1004780091150A128A1164220A128A11831203132F
:100488001308F500F6017508A0007608A1000A1205
:100498008A1164220A128A11730874040319552AEE
:1004A800592A8316031391165C2A83160313911293
:1004B8001116831203132108F4002008F300080022
:1004C800831603131419692A6A2A642A11081F3922
:1004D800031D6F2A702A642A08000A128A116422EE
:1004E8000A128A11730883120313930008000A1270
:1004F8008A1164220A128A1183160313111508003F
:100508000A128A1164220A128A118316031311141B
:080518000800EC340134013449
:04400E00D420FF3F7C
:00000001FF
