:020000040000FA
:060000000A128A11F42F20
:100F4000EC34FF30831603138500F8308600FF3041
:100F50008700FF3088000F308900871165308F00CF
:100F60008B1308000A128A11A1270A128A11F501AF
:100F7000F50A8312031306140330F2008A30F100DD
:100F80005530F000F00BC22FF10BC22FF20BC22F25
:100F9000C92FF401F40A8312031386140330F200FC
:100FA0008A30F1005530F000F00BD42FF10BD42F24
:100FB000F20BD42FDB2FF301F30A83120313061570
:100FC0000330F2008A30F1005530F000F00BE62FCC
:100FD000F10BE62FF20BE62FED2FF501F401F301F3
:100FE000B72F0A128A1100280A128A11A0270A12A2
:100FF0008A11F600F301F40183010A128A11B22F5B
:04400E00D420FF3F7C
:00000001FF
